:020000040800F2
:10000000680500200101000895200008EF1D000888
:1000100091200008B9010008B52800080000000080
:10002000000000000000000000000000FD200008AB
:10003000BD01000800000000D1200008FF200008DA
:100040001B0100081B0100081B0100081B01000820
:100050001B0100081B0100081B0100081B01000810
:100060001B0100081B0100081B0100081B01000800
:100070001B0100081B0100081B0100081B010008F0
:100080001B0100081B0100081B0100081B010008E0
:100090001B0100081B0100081B0100081B010008D0
:1000A0001B0100081B0100081B0100081B010008C0
:1000B000C5210008D52100081B0100081B0100080C
:1000C0001B0100081B0100081B0100081B010008A0
:1000D0001B010008E12600081B010008F1260008AA
:1000E0001B0100081B0100081B010008DFF80CD0F1
:1000F00000F050F800480047752A00086805002005
:100100000648804706480047FEE7FEE7FEE7FEE7B1
:10011000FEE7FEE7FEE7FEE7FEE7FEE76D210008EB
:10012000ED000008D2B201E000F8012B491EFBD21D
:1001300070470022F6E710B513460A4604461946F2
:10014000FFF7F0FF204610BD30B5054600200346FE
:1001500000E05B1C934205D2EC5CC85C201A01D124
:10016000002CF6D130BD30B50B46014600202022D0
:10017000012409E021FA02F59D4205D303FA02F5B4
:10018000491B04FA02F52844151EA2F10102F1DC14
:1001900030BD0000064C074D06E0E06840F001036A
:1001A00094E8070098471034AC42F6D3FFF7A2FF5B
:1001B00080320008A032000800BFFEE77047704799
:1001C00070B50446002594F82100022803D00420CD
:1001D000A063012548E02068006820F00E00216837
:1001E00008602068006820F00100216808601F494D
:1001F0002068884201D1012026E01C491431206882
:10020000884201D110201FE0184928312068884217
:1002100001D1801518E015493C312068884201D190
:10022000801411E0114950312068884202D14FF406
:10023000803009E00D4964312068884202D14FF4D2
:10024000801001E04FF080700849083948600120B3
:1002500084F8210000BF002084F8200000BF606BFC
:1002600010B12046616B8847284670BD08000240E7
:1002700070B5044600F0ACF906462546681C10B17E
:1002800004480078054400BF00F0A2F9801BA84292
:10029000FAD370BD380000202DE9F847034600244A
:1002A000002000258446002700226EE14FF001085F
:1002B00008FA02F4D1F8008008EA0400A0427DD1D7
:1002C000DFF8D0A2D1F80480A8EB0A09D0453AD0D3
:1002D00014DCB8F1030F50D009DCB8F1000F31D0B5
:1002E000B8F1010F1CD0B8F1020F49D120E0B8F1EC
:1002F000110F18D0B8F1120F42D11EE0B9F5881FC6
:1003000025D006DCB9F5803F20D0B9F5801F37D164
:100310001AE0B9F5001F18D0B9F5041F30D117E065
:10032000D1F80CC02DE0D1F80C8008F1040C28E0C5
:10033000D1F80C8008F1080C23E0D1F80C8008F10A
:100340000C0C1EE000BF00BF00BF00BF00BF00BF1D
:10035000D1F80880B8F1000F02D14FF0040C0BE087
:10036000D1F80880B8F1010F03D14FF0080C1C61DF
:1003700002E04FF0080C5C6103E04FF0000C00E07D
:1003800000BF00BFFF2801D8984601E003F1040830
:100390004646FF2802D84FEA820803E0A2F1080887
:1003A0004FEA88084746D6F800804FF00F0909FA4F
:1003B00007F928EA09080CFA07F900E088E048EA9A
:1003C0000908C6F80080D1F8048008F08058B8F118
:1003D000805F7DD100BFDFF8C081D8F8188048F079
:1003E0000108DFF8B491C9F81880C846D8F8188019
:1003F00008F00108CDF8008000BF00BF4FEAB9380F
:100400004FEA920958F829504FEA82784FEA187952
:100410004FF00F0808FA09F825EA0805DFF87C8193
:10042000434502D14FF0000816E0DFF874814345E0
:1004300002D14FF001080FE0DFF86881434502D197
:100440004FF0020808E0DFF86081434502D14FF029
:10045000030801E04FF004084FEA82794FEA197966
:1004600008FA09F848EA0505DFF840814FEA9209E1
:1004700048F82950D1F8048008F48038B8F5803F56
:100480000AD1DFF82C81D8F8008048EA0008DFF8AC
:100490002091C9F8008009E0DFF81481D8F80080C5
:1004A00028EA0008DFF80891C9F80080D1F8048034
:1004B00008F40038B8F5003F10D1DFF8F48008F1F7
:1004C0000408D8F8008048EA0008DFF8E49000E06B
:1004D0005AE009F10409C9F800800DE0DFF8D08086
:1004E00008F10408D8F8008028EA0008DFF8C09076
:1004F00009F10409C9F80080D1F8048008F48018D3
:10050000B8F5801F0ED1DFF8A88008F10808D8F8E8
:10051000008048EA0008DFF8989009F10809C9F856
:1005200000800DE0DFF8888008F10808D8F8008026
:1005300028EA0008DFF8789009F10809C9F8008076
:10054000D1F8048008F40018B8F5001F0ED1DFF8C8
:10055000608008F10C08D8F8008048EA0008DFF84D
:10056000509009F10C09C9F800800DE0DFF84080D7
:1005700008F10C08D8F8008028EA0008DFF830906D
:1005800009F10C09C9F80080521C102AFFF48EAE44
:10059000BDE8F8870000111000100240000801407B
:1005A000000C01400010014000140140080001400F
:1005B00000040140024693680B400BB1012000E0AB
:1005C000002070470AB1016101E00B04036170472C
:1005D00001480068704700003000002003480068B0
:1005E0000349097808440149086070473000002039
:1005F0003800002010B50848006840F01000064997
:100600000860032000F0A6F8072000F007F800F0CB
:100610002BF8002010BD00000020024070B50446F9
:100620000E4800784FF47A71B1FBF0F00C4909687C
:10063000B1FBF0F5284600F019FC08B1012070BDAF
:10064000102C07D200222146501E00F044F8054825
:10065000046001E00120F2E70020F0E7380000200C
:100660003C0000203400002008B500BF114880691C
:1006700040F001000F4988610846806900F00100E0
:10068000009000BF00BF00BF0846C06940F0805026
:10069000C8610846C06900F08050009000BF00BFEC
:1006A00000BF0549486820F0E06040F000704860F5
:1006B00000BF08BD001002400000014000BF00F074
:1006C0001F02012191404209920002F1E022C2F88A
:1006D000001100BF70472DE9F05F80460D461646B9
:1006E000002701F0D9FC074639462A46334601F077
:1006F0000700C0F1070ABAF1040F02D94FF0040A4B
:1007000001E0C0F1070AD14600F1040ABAF1070F6F
:1007100002D24FF0000A01E0A0F1030AD4464FF0E4
:10072000010A0AFA09FAAAF1010A0AEA020A0AFA0D
:100730000CFA4FF0010B0BFA0CFBABF1010B0BEABF
:10074000030B4AEA0B042146404601F0ADFCBDE82C
:10075000F09F000000BF00F00702064B19684FF63B
:10076000FF031940044B0B4343EA0221014B19607C
:1007700000BF70470CED00E00000FA0570B50446BC
:100780000D4600266D48006800F00700A8420ED212
:100790006A48006820F00700284368490860084656
:1007A000006800F00700A84201D0012070BD207849
:1007B00000F0020002281DD1207800F00400042877
:1007C00005D15F48406840F4E0605D4948602078AA
:1007D00000F00800082805D15948406840F46050EE
:1007E000574948605648406820F0F000A168084327
:1007F00053494860207800F0010000285DD060680F
:10080000012806D14E48006800F4003090B901205C
:10081000CCE76068022806D14948006800F0007003
:1008200040B90120C2E74648006800F0020008B95C
:100830000120BBE74248406820F00300616808439C
:100840003F494860FFF7C4FE06466068012810D1A2
:1008500008E0FFF7BDFE801B41F28831884201D9D4
:100860000320A3E73648406800F00C000428F0D1CC
:1008700023E06068022810D108E0FFF7A9FE801B82
:1008800041F28831884201D903208FE72C48406823
:1008900000F00C000828F0D10FE008E0FFF798FE08
:1008A000801B41F28831884201D903207EE7244829
:1008B000406800F00C000028F0D12048006800F0EB
:1008C0000700A8420ED91D48006820F00700284301
:1008D0001A4908600846006800F00700A84201D0E5
:1008E000012063E7207800F00400042807D11448B1
:1008F000406820F4E060E1680843114948602078CE
:1009000000F00800082808D10D48406820F4605025
:10091000216940EAC1000A49486000F03DF80849F1
:100920004968C1F30311074A515CC8400649086091
:100930000020FFF773FE002038E70000002002408F
:1009400000100240653200083C00002001480068A9
:10095000704700003C00002000B5FFF7F7FF044996
:100960004968C1F30221034A515CC84000BD000040
:10097000001002407532000800B5FFF7E7FF044998
:100980004968C1F3C221034A515CC84000BD000060
:100990000010024075320008F0B585B00FF26C0C03
:1009A0009CE8E01001A8A0E8E0101CA52D680095C7
:1009B00000210022002300240020194D696801F065
:1009C0000C05F5B1042D02D0082D19D101E0154810
:1009D00019E001ADC1F38346AC5D01F4803555B13A
:1009E0000F4D6D68C5F340451DF805200D4D65435D
:1009F000B5FBF2F302E00C4D04FB05F3184602E0F0
:100A000000BF084800BF00BF05B0F0BD02030405E9
:100A1000060708090A0B0C0D0E0F1010010200004A
:100A20000010024000127A0000093D00F8B50446AB
:100A30000025207800F00100002878D0F8484068B0
:100A400000F00C0004280CD0F548406800F00C00C1
:100A5000082811D1F248406800F48030B0F5803F9A
:100A60000AD1EF48006800F4003000285FD06068C9
:100A700000285CD10120F8BD00BF6068B0F5803F60
:100A800006D1E748006840F48030E549086028E076
:100A9000606858B9E248006820F48030E049086096
:100AA0000846006820F4802008601AE06068B0F50D
:100AB000A02F0BD1DA48006840F48020D8490860A4
:100AC0000846006840F4803008600AE0D4480068B6
:100AD00020F48030D24908600846006820F4802065
:100AE000086000BF606888B1FFF772FD054606E048
:100AF000FFF76EFD401B642801D90320BBE7C848FF
:100B0000006800F400300028F2D010E0FFF760FD2C
:100B1000054606E0FFF75CFD401B642801D9032071
:100B2000A9E7BF48006800F400300028F2D120781F
:100B300000F00200022857D1B948406800F00C00CC
:100B400050B1B748406800F00C00082818D1B448EC
:100B5000406800F4803098B9B148006800F00200A5
:100B600020B12069012801D0012084E7AC48006849
:100B700020F0F800616940EAC100A949086033E04B
:100B80002069E8B10120A7490860FFF721FD05466B
:100B900006E0FFF71DFD401B022801D903206AE78C
:100BA0009F48006800F002000028F2D09C480068CE
:100BB00020F0F800616940EAC1009949086013E03B
:100BC000002098490860FFF703FD054606E0FFF79F
:100BD000FFFC401B022801D903204CE79048006825
:100BE00000F002000028F2D1207800F00800082868
:100BF0002DD1A069B8B101208B490860FFF7E8FC4E
:100C0000054606E0FFF7E4FC401B022801D903205B
:100C100031E78348406A00F002000028F2D001204A
:100C200001F058FA13E000207F490860FFF7D0FC7C
:100C3000054606E0FFF7CCFC401B022801D9032043
:100C400019E77748406A00F002000028F2D12078C6
:100C500000F00400042873D100267148C06900F038
:100C6000805070B900BF6E48C06940F080506C4938
:100C7000C8610846C06900F08050009000BF00BF06
:100C800001266A48006800F48070B0B967480068BF
:100C900040F4807065490860FFF79AFC054606E05D
:100CA000FFF796FC401B642801D90320E3E65F4868
:100CB000006800F480700028F2D000BFE0680128CE
:100CC00006D15748006A40F001005549086227E004
:100CD000E06858B95248006A20F0010050490862A3
:100CE0000846006A20F00400086219E0E068052860
:100CF0000BD14B48006A40F004004949086208469D
:100D0000006A40F0010008620AE04548006A20F0ED
:100D10000100434908620846006A20F004000862A6
:100D200000BFE068A0B1FFF753FC054609E0FFF7FC
:100D30004FFC401B41F28831884202D903209AE6D9
:100D400022E03748006A00F002000028EFD012E0ED
:100D5000FFF73EFC054608E0FFF73AFC401B41F276
:100D60008831884201D9032085E62D48006A00F0C9
:100D700002000028F0D1012E05D12948C06920F0D9
:100D800080502749C86100BFE069C8B32448406863
:100D900000F00C00082860D0E069022848D100204B
:100DA00020490866FFF714FC054606E0FFF710FC33
:100DB000401B022801D903205DE61948006800F0B5
:100DC00000700028F2D1206AB0F5803F07D11448A6
:100DD000406820F40030A168084311494860D4E914
:100DE000080108430E49496821F4741108430C496D
:100DF000486001200B490866FFF7EAFB054607E05B
:100E00002DE0FFF7E5FB401B022801D9032032E665
:100E10000348006800F000700028F2D01FE00000D6
:100E20000010024000004242800442420070004034
:100E300000200C490866FFF7CBFB054606E0FFF7EC
:100E4000C7FB401B022801D9032014E606480068AE
:100E500000F000700028F2D101E001200BE6002034
:100E600009E60000000042420010024070B504464E
:100E70002546681EB0F1807F01D301200FE0681E77
:100E80004FF0E02148610F214FF0FF3001F00CF9E5
:100E900000204FF0E021886107200861002070BD2C
:100EA00070477047024600BF92F83C00012801D10C
:100EB00002207047012082F83C0000BF022082F827
:100EC0003D001068406820F070001368586010689A
:100ED00040680B681843136858601068806820F0F9
:100EE000800013689860106880684B681843136826
:100EF0009860012082F83D0000BF002082F83C008D
:100F000000BF00BFD5E710B504460CB9012010BDE5
:100F100094F83D0028B9002084F83C00204600F0F9
:100F20000DF8022084F83D00211D206801F05AF9D7
:100F3000012084F83D000020E9E7000038B50446B0
:100F40002068B0F1804F16D100BF1848C06940F04A
:100F500001001649C8610846C06900F00100009010
:100F600000BF00BF002206211C20FFF7B4FB1C209D
:100F7000FFF7A4FB19E00E492068884215D100BF95
:100F80000A48C06940F002000849C8610846C069C3
:100F900000F00200009000BF00BF002205211D20CC
:100FA000FFF799FB1D20FFF789FB38BD00100240B9
:100FB0000004004001460868C06840F001000A686B
:100FC000D0600868006840F001000A6810600020E6
:100FD00070472DE9F04104460D46002600BF94F805
:100FE0003C00012802D10220BDE8F081012084F8F4
:100FF0003C0000BF022084F83D002068866826F08F
:10100000770626F47F4620688660286850283BD003
:101010000CDC202860D004DC002853D0102865D1D7
:1010200055E030285DD0402860D141E0602835D0BF
:1010300070280DD0B0F5805F03D0B0F5005F55D1BA
:1010400015E02068806820F00700216888604EE085
:10105000D5E902136A68206801F0FEF82068866806
:1010600026F0770646F07706206886603FE0D5E9EF
:1010700002136A68206801F0EFF82068806840F485
:1010800080402168886032E0EA686968206801F081
:10109000F9F85021206801F0EBF828E0EA68696867
:1010A000206801F004F96021206801F0E1F81EE0F9
:1010B000EA686968206801F0E5F84021206801F0DD
:1010C000D7F814E00021206801F0D2F80FE01021D9
:1010D000206801F0CDF80AE02021206801F0C8F86E
:1010E00005E03021206801F0C3F800E000BF00BF38
:1010F000012084F83D0000BF002084F83C0000BFC0
:1011000000BF71E7704710B5044620680069C0F35E
:101110004000D8B12068C068C0F34000B0B16FF0A3
:10112000020021680861012020772068806900F0B2
:10113000030018B12046FFF7E5FF05E0204600F068
:10114000ADF8204600F0ABF8002020772068006959
:10115000C0F38000D8B12068C068C0F38000B0B18F
:101160006FF0040021680861022020772068806900
:1011700000F4407018B12046FFF7C4FF05E0204698
:1011800000F08CF8204600F08AF8002020772068D4
:101190000069C0F3C000D8B12068C068C0F3C000C7
:1011A000B0B16FF008002168086104202077206842
:1011B000C06900F0030018B12046FFF7A3FF05E067
:1011C000204600F06BF8204600F069F800202077F8
:1011D00020680069C0F30010D8B12068C068C0F36F
:1011E0000010B0B16FF0100021680861082020776E
:1011F0002068C06900F4407018B12046FFF782FFF4
:1012000005E0204600F04AF8204600F048F80020AB
:1012100020772068006900F0010058B12068C0689C
:1012200000F0010030B16FF0010021680861204634
:1012300000F036F820680069C0F3C01058B120688B
:10124000C068C0F3C01030B16FF080002168086141
:101250002046FFF725FE20680069C0F3801058B1D2
:101260002068C068C0F3801030B16FF04000216882
:101270000861204600F0A4FB20680069C0F340101C
:1012800058B12068C068C0F3401030B16FF0200042
:10129000216808612046FFF704FE10BD70477047C3
:1012A00070B5054600242868B0F1804F6FD1012247
:1012B0001146F948FFF786F901228021F748FFF728
:1012C00081F901224021F548FFF77CF90122022132
:1012D000F148FFF777F9F2480078C100F14800685B
:1012E000C840C4B2F048005D00F001020821EB489C
:1012F000FFF768F9EC48005DC0F340024FF480410D
:10130000EA48FFF75FF9E848005DC0F3800210216A
:10131000E248FFF757F9E448005DC0F3C0024FF41C
:101320000041E248FFF74EF9DF48005DC0F30012CC
:101330000221DA48FFF746F9DB48005DC0F34012AE
:101340000121D648FFF73EF9D748005DC0F380126F
:101350000421D248FFF736F901222021CF48FFF7B8
:1013600031F9CF48007830B101280AD002280FD0D7
:10137000032819D112E000220221C748FFF722F901
:1013800016E000224021C548FFF71CF910E085E275
:1013900000228021C148FFF715F909E00022012150
:1013A000BD48FFF70FF903E00020BD49087000BFFA
:1013B00000BFBB480078032805DAB9480078401C14
:1013C000B749087002E00020B5490870B8480068C5
:1013D000401CB7490860B7480078062874D2DFE897
:1013E00000F0032D6BB2F4F3B1480068C82803D9AC
:1013F0000020AF49086020E0AD48006864280ED99D
:10140000A748007828B901222021A448FFF7DAF87C
:1014100013E001222021A148FFF7D4F80DE0A048F5
:10142000007828B9002220219C48FFF7CBF804E07F
:10143000012220219948FFF7C5F805E19C48006882
:10144000C82803D900209A49086034E09848006809
:10145000642818D99248007828B9002220218F48A2
:10146000FFF7B0F827E08E480078032805D1012265
:1014700020218A48FFF7A6F81DE001222021874895
:10148000FFF7A0F817E08648007828B9002220214D
:101490008248FFF797F80EE081480078032805D1CD
:1014A000002220217D48FFF78DF804E00122202151
:1014B0007A48FFF787F8C7E07D480068C82804D954
:1014C00000207B4908603DE0BDE079480068642861
:1014D0001CD97348007818B171480078032805D1E9
:1014E000002220216D48FFF76DF82BE06C48007852
:1014F000022805D1012220216848FFF763F821E086
:10150000012220216548FFF75DF81BE06448007860
:1015100018B163480078032805D1002220215F48D4
:10152000FFF750F80EE05E480078022805D100224F
:1015300020215A48FFF746F804E0012220215748AD
:10154000FFF740F880E05A480068B0F5FA7F03D909
:1015500000205749086057E055480068B0F5C87F3B
:1015600005D9002220214D48FFF72CF84CE05048C7
:101570000068B0F5967F16D94948007838B14848D8
:101580000078032803D046480078022805D10022BD
:1015900020214248FFF716F836E0012220213F487B
:1015A000FFF710F830E042480068C82814D93C48DA
:1015B000007818B13A480078032807D1002220218A
:1015C0003648FEF7FFFF1FE037E01EE00122202132
:1015D0003248FEF7F7FF17E03548006864280ED957
:1015E0002F48007828B9002220212C48FEF7EAFF76
:1015F0000AE0012220212948FEF7E4FF04E001224D
:1016000020212648FEF7DEFF1EE029480068C82892
:1016100003D90020264908600EE0254800686428A8
:1016200005D9012220211D48FEF7CCFF04E000224D
:1016300020211A48FEF7C6FF06E0002220211748A5
:10164000FEF7C0FF00E000BF00BF1B480068401C61
:10165000194908601948007838B90020086000224C
:1016600020210D48FEF7AEFF94E1144800780128D0
:1016700030D111480068B0F5FA7F03D900200E4937
:10168000086087E10C480068C82819D10022202191
:101690000148FEF797FF7DE1000C01400008014082
:1016A0001E00002000000020383200080010014019
:1016B0002400002016000020280000201700002031
:1016C000B54800680128CFD101222021B348FEF798
:1016D00079FF5FE1B24800780228C5D1AE480068C2
:1016E000FA2803D10020AC49086053E1AA480068F9
:1016F000A52805D100222021A848FEF763FF49E173
:10170000A5480068A02814D9A34800681421B0FB9C
:10171000F1F201FB1200092805D9012220219F487E
:10172000FEF750FF36E1002220219C48FEF74AFFD9
:1017300030E1994800689B2811D99748007800F05B
:101740000F00072805D9012220219448FEF73AFF0F
:1017500020E1002220219148FEF734FF1AE18E4853
:101760000068962814D98C4800680C21B0FBF1F26F
:1017700001FB1200052805D9012220218748FEF728
:1017800021FF07E1002220218448FEF71BFF01E131
:1017900081480068912811D97F48007800F007003F
:1017A000032805D9012220217C48FEF70BFFF1E038
:1017B000002220217948FEF705FFEBE0764800681B
:1017C0008C2811D97448007800F00300012805D94D
:1017D000012220217148FEF7F5FEDBE000222021E6
:1017E0006E48FEF7EFFED5E06B480068782811D907
:1017F0006948007800F00700032805D9012220215C
:101800006648FEF7DFFEC5E0002220216348FEF7B0
:10181000D9FEBFE060480068502814D95E480068CF
:101820000C21B0FBF1F201FB1200052805D90122C1
:1018300020215A48FEF7C6FEACE00022202157487E
:10184000FEF7C0FEA6E054480068282811D9524887
:10185000007800F00F00072805D9012220214F4809
:10186000FEF7B0FE96E0002220214C48FEF7AAFECB
:1018700090E0494800681421B0FBF1F201FB12002E
:10188000092805D9012220214448FEF79BFE81E06A
:10189000002220214148FEF795FE7BE0414928685F
:1018A000884277D141153D48FEF784FE20BB3E4873
:1018B000007846280BDD3C4800780A2190FBF1F2C5
:1018C00001FB120018B901203849087006E03648BB
:1018D0000078022802D1012034490870324800788B
:1018E000C82805DA30480078401C2F49087006E007
:1018F00064202D49087002E000202B4908704FF445
:1019000080712648FEF756FE20BB294800784628FD
:101910000BDD274800780A2190FBF1F201FB120051
:1019200018B901202349087006E0214800780228F0
:1019300002D101201F4908701D480078C82805DA27
:101940001B480078401C1A49087006E064201849BA
:10195000087002E000201649087080210F48FEF749
:1019600029FEA0B914480078022802D101201349A9
:10197000087011480078C82805DA0F480078401C24
:101980000D49087006E064200B49087002E0002051
:101990000949087070BD000028000020000C0140BB
:1019A00017000020000400401F000020130000204A
:1019B000200000201400002021000020150000203D
:1019C000704770472DE9FC47044620680568206889
:1019D000C668206847694FF00008C14600200190A2
:1019E00005F00F08B8F1000F14D105F0200088B100
:1019F00006F0200070B120684068C0B201900A2350
:101A0000012201A9204600F086F9202084F83A003E
:101A1000BDE8FC87B8F1000F79D007F0010018B9D4
:101A200006F49070002872D005F0010030B106F481
:101A3000807018B1E06B40F00100E06305F0040035
:101A400030B107F0010018B1E06B40F00200E06334
:101A500005F0020030B107F0010018B1E06B40F072
:101A60000400E06305F0080030B107F0010018B190
:101A7000E06B40F00800E063E06B68B305F0200025
:101A800028B106F0200010B1204600F087FC206845
:101A90004069C0F38019E06B00F0080010B9B9F19B
:101AA000000F22D0204600F059FC2068406900F069
:101AB0004000B0B12068406920F0400021684861D2
:101AC000606B50B11D48616B4863606BFEF778FB3B
:101AD00010B1606B416B88470CE02046FFF771FF47
:101AE00008E02046FFF76DFF04E02046FFF769FF9E
:101AF0000020E06300BF0020009020680068009094
:101B000020684068009000BF00BF81E7FFE705F054
:101B1000800030B106F0800018B1204600F076FD5C
:101B200076E705F0400030B106F0400018B12046DD
:101B300000F024FC6CE700BF6AE7000049230008BE
:101B400010B504460CB9012010BDA06900B100E039
:101B500000BF94F8390028B9002084F838002046E6
:101B600000F028F8242084F839002068C06820F4A8
:101B700000502168C860204600F064FC20680069BD
:101B800020F49040216808612068406920F02A0014
:101B9000216848612068C06840F400502168C8602E
:101BA0000020E063202084F8390084F83A00002007
:101BB000CAE7000010B586B00446002002900390EA
:101BC000049005904E492068884249D100BF4D4895
:101BD000806940F480404B4988610846806900F480
:101BE0008040019000BF00BF00BF0846806940F000
:101BF000040088610846806900F00400019000BF7D
:101C000000BF48150290022003900320059002A90E
:101C10003D48FEF741FB4FF48060029000200390A6
:101C2000049002A93848FEF737FB00220421252042
:101C3000FEF751FD2068C06840F020002168C860B0
:101C40002068C06820F080002168C8602068C068F3
:101C500020F040002168C8602520FEF72FFD4CE0F1
:101C60002A492068884248D100BF2648C06940F40C
:101C700080202449C8610846C06900F48020019092
:101C800000BF00BF00BF0846806940F008008861BF
:101C90000846806900F00800019000BF00BF0815E9
:101CA0000290022003900320059002A91848FEF735
:101CB000F3FA4FF40060029000200390049002A910
:101CC0001348FEF7E9FA002204212720FEF703FD5E
:101CD0002068C06840F020002168C8602068C068A3
:101CE00020F080002168C8602068C06820F04000B3
:101CF0002168C8602720FEF7E1FC06B010BD000097
:101D00000038014000100240000801400048004037
:101D1000000C014070472DE9F84304460D46164675
:101D20001F464FF0000994F8390020285CD105B116
:101D300016B90120BDE8F88300BF94F838000128E7
:101D400001D10220F6E7012084F8380000BF00200E
:101D5000E063212084F83900FEF73AFC8146A6842E
:101D6000E6842BE0E08C401EE084A068B0F5805F44
:101D700016D14B46002280212046009700F07AFCC5
:101D800008B10320D6E7A846B8F80000C0F3080061
:101D900021684860206908B9AD1C0FE06D1C0DE09A
:101DA0004B46002280212046009700F063FC08B1DA
:101DB0000320BFE715F8010B21684860E08C00287C
:101DC000D0D14B46002240212046009700F052FC23
:101DD00008B10320AEE7202084F8390000BF0020BE
:101DE00084F8380000BFA5E70220A3E7704700BFD2
:101DF000FEE7000000B585B000200190029003903E
:101E0000049000BF4A48806940F01000484988614A
:101E10000846806900F01000009000BF00BF00BFBE
:101E20000846806940F0200088610846806900F01B
:101E30002000009000BF00BF00BF0846806940F04E
:101E4000040088610846806900F00400009000BF2B
:101E500000BF00BF0846806940F00800886108465E
:101E6000806900F00800009000BF00BF002248F227
:101E70003F013048FEF7A6FB00224FF440412E48B8
:101E8000FEF7A0FB012251032B48FEF79BFB01222A
:101E9000C0212848FEF796FB01221B212748FEF7A8
:101EA00091FB002218212548FEF78CFB00222021FF
:101EB0002248FEF787FB4FF46070019000200290EB
:101EC0000120039001A91D48FEF7E6F948F2FF0042
:101ED000019001200290002003900220049001A9AB
:101EE0001448FEF7D9F94FF46040019001200290A8
:101EF000002003900220049001A90F48FEF7CCF9BE
:101F00003B200190012002900020039002200490C9
:101F100001A90A48FEF7C0F9402001900020029074
:101F20000120039001A90548FEF7B6F905B000BDF0
:101F3000001002400008014000100140000C014068
:101F400000B587B0002003900490059006900190A2
:101F500002904FF080401549086041F61F404860EC
:101F60000021124881601921C16000210161802196
:101F70008161FEF7C8FF08B1FEF721F94FF48050E8
:101F8000039003A90948FFF724F808B1FEF717F9F1
:101F9000202001900020029001A90448FEF782FF52
:101FA00008B1FEF70CF907B000BD000044000020A6
:101FB00000B587B000200390049005900690019032
:101FC000029015481549086041F61F4048600021FD
:101FD000124881606421C16000210161802181611A
:101FE000FEF791FF08B1FEF7EAF84FF48050039036
:101FF00003A90A48FEF7EDFF08B1FEF7E0F820203C
:1020000001900020029001A90448FEF74BFF08B19F
:10201000FEF7D5F807B000BD0004004084000020A2
:1020200010B50B480B4908604FF4E13048600021BF
:1020300008488160C16001610C214161002181611A
:10204000C161FFF77DFD08B1FEF7B9F810BD0000D2
:1020500000380140C400002010B50B480B4908604F
:102060004FF4E1304860002108488160C16001619F
:102070000C21416100218161C161FFF761FD08B15F
:10208000FEF79DF810BD000000480040040100204C
:1020900000BFFEE77047000002480068C0F302205E
:1020A000704700000CED00E010B5002807DA0A07C1
:1020B000140E054A00F00F031B1FD45403E00A0757
:1020C000130E024A135410BD18ED00E000E400E0C6
:1020D0007047000008B508490968C9084FF47A72CA
:1020E000B1FBF2F14143009100BF00BF00994A1ECD
:1020F00000920029F9D108BD3C000020704710B5BE
:10210000FEF76CFA10BD00B58FB0282105A8FEF7C8
:1021100010F814216846FEF70CF801200590000421
:102120000690002007900120099002200C90C10326
:102130000D914FF4E0110E9105A8FEF777FC08B160
:10214000FEF73DF80F200090022001900020029041
:102150004FF4806003900020049002216846FEF74F
:102160000DFB08B1FEF72BF80FB000BD1148006859
:1021700040F001000F490860084640680E490840D9
:102180000C494860084600680C4908400949086045
:102190000846006820F4802008600846406820F463
:1021A000FE0048604FF41F008860C80304490860BF
:1021B00070470000001002400000FFF8FFFFF6FE2D
:1021C00008ED00E010B50248FEF79DFF10BD0000CD
:1021D0004400002010B50248FEF795FF10BD000036
:1021E0008400002000220268184B984208D0B0F109
:1021F000804F05D0164B984202D0164B984203D11F
:1022000022F070024B681A43104B984208D0B0F18C
:10221000804F05D00E4B984202D00E4B984203D10E
:1022200022F44072CB681A4322F080024B691A43B1
:1022300002608B68C3620B688362044B984201D1D1
:102240000B6903630123436170470000002C0140C8
:10225000000400400008004030B50C4600218168B1
:1022600021F47F4142EA032525432943816030BDA3
:102270000A460021816821F0700142F007031943EA
:102280008160704730B50B46144600210022026A77
:10229000056A25F001050562816921F0F00141EA36
:1022A000041122F00A021A438161026230BD30B586
:1022B0000B46144600210022056A25F01005056230
:1022C0008169026A21F4704141EA043122F0A002DE
:1022D00042EA03128161026230BD000070B504461B
:1022E0000D46012C04D0022C08D0032C13D10BE096
:1022F0002A4610210B48FEF765F911E02A4608210D
:102300000848FEF75FF90BE02A464FF40041064803
:10231000FEF758F904E0214604A000F0CDFA00BF12
:1023200000BF70BD000C014000080140496E76619D
:102330006C69642052656C617920496E646578200F
:1023400025640D0A0000000070B505466C6A002087
:10235000E085E0842046FFF734FB70BD0168C96862
:1023600021F490710268D1600168496921F001018E
:1023700002685161202180F83A10704710B5044678
:102380002068C06820F040002168C860202084F8E0
:1023900039002046FFF72AFD002010BD70B5044625
:1023A00094F83A0022284AD1A068B0F5805F13D192
:1023B000A56A206940B920684068C0F308002880F9
:1023C000A06A801CA06219E020684068C0B2288022
:1023D000A06A401CA06211E0206938B920684068FA
:1023E000C1B2A26A501CA062117007E02068406868
:1023F00000F07F01A26A501CA0621170E08D401EA7
:1024000080B2E085C8B92068C06820F0200021684B
:10241000C8602068C06820F480702168C8602068A7
:10242000406920F0010021684861202084F83A00CA
:102430002046FFF76FFC002070BD0020FCE7022063
:10244000FAE700002DE9F041044600252068006904
:1024500020F44050E1680843216808612169A068C0
:1024600008436169084305432068C06841F20C6174
:10247000884328432168C8602068406920F4407080
:10248000A1690843216848615F49206888425CD19E
:10249000FEF772FA00EBC00101EB001061688900E1
:1024A000B0FBF1F6FEF768FA00EBC00101EB00109B
:1024B00061688900B0FBF1F06421B0FBF1F000EB42
:1024C000C00101EB0010A6EB8000322101EB0010EF
:1024D0006421B0FBF1F000F0F006FEF74DFA00EBDE
:1024E000C00101EB001061688900B0FBF1F06421CC
:1024F000B0FBF1F006EB0016FEF73EFA00EBC00170
:1025000001EB001061688900B0FBF1F7FEF734FAC7
:1025100000EBC00101EB001061688900B0FBF1F035
:102520006421B0FBF1F000EBC00101EB0010A7EB60
:102530008000322101EB00106421B0FBF1F000F0CB
:102540000F003044216888605BE0FEF705FA00EB7D
:10255000C00101EB001061688900B0FBF1F6FEF7E5
:10256000FBF900EBC00101EB001061688900B0FBD2
:10257000F1F06421B0FBF1F000EBC00101EB0010C1
:10258000A6EB8000322101EB00106421B0FBF1F0DA
:1025900000F0F006FEF7E0F900EBC00101EB0010DF
:1025A00061688900B0FBF1F06421B0FBF1F006EB4B
:1025B0000016FEF7D1F900EBC00101EB00106168D5
:1025C0008900B0FBF1F7FEF7C7F900EBC00101EBA2
:1025D000001061688900B0FBF1F06421B0FBF1F0FC
:1025E00000EBC00101EB0010A7EB8000322101EBF2
:1025F00000106421B0FBF1F000F00F0030442168BE
:102600008860BDE8F081000000380140014691F883
:10261000390021282CD18868B0F5805F0FD10A6A73
:102620001088C0F308000B685860086918B9086A78
:10263000801C086209E0086A401C086205E00B6A19
:10264000581C086218780B685860C88C401E80B20D
:10265000C88458B90868C06820F080000B68D8604A
:102660000868C06840F040000B68D86000207047E0
:102670000220FCE72DE9F04104460D461746984636
:10268000069E21E0701CF8B12EB1FDF7A1FFA0EB72
:102690000800B04218D92068C06820F4D0702168C2
:1026A000C8602068406920F001002168486120204E
:1026B00084F8390084F83A0000BF002084F838001C
:1026C00000BF0320BDE8F081206800682840A842D0
:1026D00001D1012000E00020B842D3D00020F1E772
:1026E00010B50248FFF76EF910BD0000C4000020CD
:1026F0002DE9F84F5E4D286807682868D0F80C80EF
:102700002868D0F814A04FF00009002607F00F0940
:10271000B9F1000F7BD107F02000002877D008F036
:1027200020000028FAD028684068C6B2202085F82A
:102730003A000D2E01D00A2E6BD14E480078202889
:1027400067DA4D480078012846D007224B494C48AB
:10275000FDF7FAFC00283FD1072406E04848005D59
:10276000202800D003E0601CC4B2202CF6DB00BFA0
:102770000020444908602CE04148005D302812DB0D
:102780003F48005D39280EDC3E48006800EB8000C1
:1027900040003C4908603A48005D30380968084408
:1027A0003849086013E03648005D20280FD13548CD
:1027B000016835A000F080F801202F490870002042
:1027C0002C49087020212E48FDF7B3FC03E0601C63
:1027D000C4B2202CD0DB12E0092232492848FDF790
:1027E000B3FC18B901203049087008E00A222F49CB
:1027F0002348FDF7A9FC10B901202D4908702021BC
:102800001F48FDF796FC00201A49087016E017E0F3
:10281000FFE718480078202809DA1948154909788F
:10282000465414480078401C1249087006E02021E4
:102830001348FDF77EFC00200E490870BDE8F88FB4
:10284000B9F1000F11D00AF0010010B908F490702E
:1028500058B100BF002000902868006800902868E8
:102860004068009000BF00BFE8E700BFE6E7000057
:10287000040100202C000020110000204832000834
:10288000440100201800002067506F7765724F6682
:102890006644656C6179536563203D2025640D0AAB
:1028A00000000000503200081C0000205A320008CE
:1028B0001D00002000BFFEE70FB4054B10B503A9B3
:1028C000044A029800F018F810BC5DF814FB0000F0
:1028D0004D2A00084000002002E008C8121F08C16D
:1028E000002AFAD170477047002001E001C1121F91
:1028F000002AFBD1704700002DE9FF4F89B09B46AD
:102900000446002506E025280BD05A460B9990472F
:10291000641C6D1C20780028F5D10DB02846BDE858
:10292000F08F0027B8460122474900E0074314F81A
:10293000013F203B02FA03F00842F7D120782E280D
:1029400019D114F8010F47F004072A280ED06FF0B0
:102950002F022078A0F1300109290CD808EB88015A
:1029600002EB410100EB0108641CF2E70A98641CC9
:1029700050F8048B0A9020780028CED0642808D024
:10298000692806D075281ED05A460B9990476D1CB1
:1029900058E00A994FF00A0901C90A91002802DAA1
:1029A00040422D2102E0390504D52B218DF820105D
:1029B000012103E0F90704D02021F7E78A4608AE99
:1029C0000DE00021FAE70A994FF00A0901C90A91BE
:1029D000F7E74946FDF7C7FB303106F8011D00282F
:1029E000F7D1ADEB060000F12009780701D44FF0D4
:1029F0000108C84502DDA8EB090000E00020804680
:102A0000002706E008A85A46C05D0B9990476D1C48
:102A10007F1C5745F6DB04E030205A460B9990475F
:102A20006D1CB8F10001A8F10108F5DC05E016F80D
:102A3000010B5A460B9990476D1CB9F10001A9F1A1
:102A40000109F4DC641C65E70928010013B50C4694
:102A50000A23012269460648FFF75DF900BF0448D2
:102A600000680068C0F3C0100028F8D000981CBDB2
:102A7000C4000020012400260025FDF7BBFDFFF760
:102A800042FBFFF7B7F9FFF75BFAFFF791FAFFF7A1
:102A9000C7FAFFF7E1FAF348FEF78CFAF248FEF7BF
:102AA00089FA0A230E22F1A1F448FFF734F9F4A0C1
:102AB000FFF702FF99E353E0F948007801280DD1B0
:102AC0000020F7490870F748006842F20F71884209
:102AD00004D2F4480068401CF2490860F2480078CB
:102AE00001280AD10020F0490870EE48006820B1A2
:102AF000EC480068401EEB490860EC48007801286B
:102B000008D10020E94908700120E9490870E9A0CE
:102B1000FFF7D2FEE34800684FF47A71B0FBF1F0A2
:102B20000006E04909686422B1FBF2F10A22B1FB18
:102B3000F2F302FB131140EA0140DA490968B1FBE4
:102B4000F2F1B1FBF2F302FB131140EA0120D54987
:102B50000968B1FBF2F302FB13110843DF49086077
:102B6000D34800780028A7D053E0CD48007801284A
:102B70000DD10020CA490870D948006842F20F718F
:102B8000884204D2D6480068401CD5490860C6482F
:102B9000007801280AD10020C3490870D048006895
:102BA00020B1CF480068401ECD490860BF4800787A
:102BB000012808D10020BD4908700220BC490870D6
:102BC000C8A0FFF779FEC64800684FF47A71B0FBE1
:102BD000F1F00006C24909686422B1FBF2F10A2251
:102BE000B1FBF2F302FB131140EA0140BC49096852
:102BF000B1FBF2F1B1FBF2F302FB131140EA012049
:102C0000B7490968B1FBF2F302FB13110843B3495A
:102C10000860A74800780128A7D053E0A0480078B2
:102C200001280DD100209E490870BB48006842F27F
:102C30000F71884204D2B8480068401CB649086049
:102C40009948007801280AD1002097490870B248B5
:102C5000006820B1B0480068401EAF490860934842
:102C60000078012808D1002090490870032090497D
:102C70000870AAA0FFF720FEA74800684FF47A71F9
:102C8000B0FBF1F00006A44909686422B1FBF2F13F
:102C90000A22B1FBF2F302FB131140EA01409E4904
:102CA0000968B1FBF2F1B1FBF2F302FB131140EA48
:102CB000012099490968B1FBF2F302FB13110843A3
:102CC000864908607A4800780228A7D053E200209D
:102CD0009649087040219648FDF76CFC95490870AC
:102CE0000846007801287CD16E48006884420BD9E0
:102CF000214691A0FFF7E0FD0124012095490870CD
:102D000005206B49087036E2214693A0FFF7D4FDF9
:102D10004FF47A70B4FBF0F000066421B4FBF1F1DB
:102D20000A22B1FBF2F302FB131140EA0140B4FBAB
:102D3000F2F1B1FBF2F302FB131140EA012011465C
:102D4000B4FBF1F201FB1241084364490860012120
:102D50000846FFF7C3FA01210220FFF7BFFA01215D
:102D60000320FFF7BBFA4FF4FA60FDF781FA002267
:102D70004FF400517C48FDF725FC4FF4FA70FDF745
:102D800077FA012251037848FDF71CFC002517E073
:102D90000920FDF76DFA45480078012803D07348F3
:102DA000007801280BD10020404908706F49087055
:102DB00004203F4908706EA0FFF77EFD09E06D1CFE
:102DC0004748006800EBC00101EB0010B5EB800F35
:102DD000DED300BF4248006800EBC00101EB0010E9
:102DE00000E0D9E0B5EB800F00D2C9E1002101205D
:102DF000FFF774FA00210220FFF770FA0021032088
:102E0000FFF76CFA002517E00920FDF731FA274893
:102E10000078012803D05548007801280BD1002004
:102E2000224908705149087004202149087050A0B7
:102E3000FFF742FD09E06D1C3748006800EBC00158
:102E400001EB0010B5EB800FDED300BF3248006805
:102E500000EBC00101EB0010B5EB800F00D28FE159
:102E600098E00000440000208400002068656C6C3D
:102E70006F207573617274330D0A00000401002025
:102E8000506C656173652073657420746F74616C38
:102E9000206379636C65732E2E2E0D0A00000000EE
:102EA0001300002004000020140000201500002062
:102EB00016000020506C6561736520736574207086
:102EC0006F776572206F6E2074696D652C2075694F
:102ED0006E742031732E2E2E0D0A0000000000208B
:102EE00008000020506C6561736520736574207064
:102EF0006F776572206379636C6520696E746572A3
:102F000076616C2074696D652C2075696E74203152
:102F1000732E2E2E0D0A00000C00002052756E6ECE
:102F2000696E672E2E2E0D0A000000001D00002085
:102F3000000C01401000002052756E2066696E6919
:102F4000736865642120546F74616C2025642E0DB4
:102F50000A0000001700002052756E202564202E04
:102F60002E2E0D0A00000000001001401C00002061
:102F70005061757365212050726573732073657499
:102F8000206B657920746F20726573756D652E0DE9
:102F90000A000000641CEEE09448006884420CD9EA
:102FA0002146AFF26C00FFF787FC01240120904915
:102FB000087005208F490870DDE02146AFF26800F7
:102FC000FFF77AFC4FF47A70B4FBF0F0000664214E
:102FD000B4FBF1F10A22B1FBF2F302FB131140EA58
:102FE0000140B4FBF2F1B1FBF2F302FB131140EA32
:102FF00001201146B4FBF1F201FB124108437E4966
:10300000086001210846FFF769F901210220FFF756
:1030100065F901210320FFF761F9002618E0092076
:10302000FDF726F975480078012803D07448007828
:1030300001280CD1002071490870714908700420E2
:103040006C490870AFF2D800FFF736FC0CE0761C34
:103050006C48007840B96C48006800EBC00101EB97
:103060000010B6EB800FDAD300BF6748006800EBB2
:10307000C00101EB0010B6EB800F03D2614800786D
:1030800000B97DE06048006800EBC00101EB001072
:10309000B6EB800F09D35DA0FFF70EFC0220544968
:1030A00008700420534908706AE0002618E00920DF
:1030B000FDF7DEF851480078012803D05048007829
:1030C00001280CD100204D4908704D49087004209A
:1030D00048490870AFF26810FFF7EEFB0DE0761C70
:1030E00048480078012808D15048006800EBC0012A
:1030F00001EB0010B6EB800FD9D300BF00210120F7
:10310000FFF7ECF800210220FFF7E8F80021032088
:10311000FFF7E4F800203B490870444908600025A7
:1031200014E00920FDF7A4F834480078012803D002
:1031300033480078012808D1002030490870304910
:10314000087004202B49087009E06D1C384800689D
:1031500000EBC00101EB0010B5EB800FE1D300BF25
:103160003348006800EBC00101EB0010B5EB800FA5
:1031700000D205E0641C1F48007803283FF4A7AD87
:1031800000BF18E01D480078012803D029480078C6
:10319000012810D1002019490870264908701849E3
:1031A00008701348007818B903201249087002E02B
:1031B00000200F4908700F4800780428E2D010E082
:1031C0000E48007801280CD10020094908700B49ED
:1031D0000870084908700A490870164908701349B0
:1031E0000860044800780528EAD064E40400002060
:1031F000170000201600002000000020150000200D
:103200001C00002011000020080000204572726F91
:10321000723A2073797374656D207475726E206FC5
:103220006E206661696C6564210D0A00180000203B
:103230000C0000201D000020C0F9A4B0999282F873
:1032400080908883C6A1868E3E5077724F66660056
:103250003E5077725061757365003E5077725265CB
:1032600073756D650000000000000000000102039E
:103270000406070809000000000102030400000022
:10328000A03200080000002044000000D8280008F8
:10329000E43200084400002024050000E82800086B
:1032A00000000000640000005A000000050000005B
:1032B000000000000000000000000000000000000E
:1032C00000000000000000000000000000000000FE
:1032D00000000000100000000100000000A24A04ED
:0432E00000000000EA
:04000005080000ED02
:00000001FF
